:100000000C9456000C9468000C9468000C946800E2
:100010000C94A6010C9468000C9468000C94680081
:100020000C9468000C9468000C9468000C946800B0
:100030000C9468000C9468000C9468000C946800A0
:100040000C9468000C9468000C9468000C94680090
:100050000C9468000C9468000C9468000C94680080
:100060000C9468000C9468000C9468000C94680070
:100070000C9468000C9468000C9468000C94680060
:100080000C9468000C9468000C9468000C94680050
:100090000C9468000C9468000C9468000C94680040
:1000A0000C9468000C9468000C94680011241FBE26
:1000B000CFEFDAE0DEBFCDBF21E0A0E0B1E001C0CC
:1000C0001D92A130B207E1F70E94B6010C942F02F5
:1000D0000C940000FC01A9EBB0E08C918C7F8C9318
:1000E0008CE08093B80010821182128213821482F5
:1000F00015821682178210861186DF01A95EBE4F17
:100100001C921286138614861586168617861197FA
:100110001C92148A108A118A128A138AA158B10972
:100120001C9291961C9290961C92EA50FF4F10825E
:10013000089584E98093BC00ECEBF0E0808184FDBD
:10014000FDCF0895DC0184EA8093BC00ECEBF0E085
:1001500090819923ECF79091B900987F983039F00D
:10016000903129F0CD010E94990080E0089582E746
:100170008093BB0084E88093BC00ECEBF0E09081BE
:100180009923ECF79091B900987F983129F0CD012F
:100190000E94990080E008956093BB0084E88093FA
:1001A000BC00ECEBF0E090819923ECF78091B90072
:1001B000887F883229F0CD010E94990080E008955F
:1001C0004093BB0084E88093BC00ECEBF0E09081AE
:1001D0009923ECF78091B900887F883229F0CD010E
:1001E0000E94990080E008951C92CD010E94990020
:1001F00081E0089541E060E80E94A2000895462F42
:10020000FC01678369E80E94A2000895462FFC0163
:1002100060876BE80E94A200089545E260E80E94B2
:10022000A20008954FEF65EE0E94A200089540E9F4
:100230006EE80E94A200089548E06FE80E94A200C4
:10024000089540E360E90E94A20008951F93CF93B0
:10025000DF93EC01162F84EA8093BC00ECEBF0E016
:1002600090819923ECF78091B900887F883029F03C
:1002700081E08883CE010E94990082E78093BB00D1
:1002800084E88093BC00ECEBF0E090819923ECF7DC
:100290008091B900887F883129F081E08883CE0180
:1002A0000E9499001093BB0084E88093BC00ECEBA3
:1002B000F0E090819923ECF78091B900887F883233
:1002C00029F081E08883CE010E94990084EA80931E
:1002D000BC00ECEBF0E090819923ECF78091B90041
:1002E000887F803129F081E08883CE010E949900C7
:1002F00083E78093BB0084EC8093BC00ECEBF0E0E0
:1003000090819923ECF78091B900887F803429F09F
:1003100081E08883CE010E94990084E88093BC002C
:10032000ECEBF0E090819923ECF78091BB00188210
:10033000DF91CF911F910895CF93DF93EC016CE98A
:100340000E942601898BDF91CF9108951F920F9211
:100350000FB60F9211248F93F89481E080930001DF
:100360008F910F900FBE0F901F901895CF93DF9332
:10037000CDB7DEB7C951D1400FB6F894DEBF0FBE7E
:10038000CDBF8AB1806C8AB98BB18F738BB953980A
:100390005B98E9E6F0E080818F7B808380818068D4
:1003A000808388E08DBBF894CE0101960E946A009C
:1003B000CE0101960E94FA00CE0101960E9417011B
:1003C000CE0101960E941C01CE0101960E942101DE
:1003D00062E3CE0101960E94060160E0CE01019623
:1003E0000E94FF00CE0101960E940D01789410E05A
:1003F00001E0809100018823E1F3CE0101960E9483
:100400009C01833380F0111127C05F9A5E986FEFD3
:10041000CE0101960E94060162E3CE0101960E9480
:10042000FF00102F11C0823378F4112369F05F9818
:100430005E9A62E3CE0101960E94060160E0CE0161
:1004400001960E94FF0010E010920001CE0101967B
:100450000E9412017894CDCF823348F3F5CFF894FF
:02046000FFCFCC
:00000001FF
